{
  "transactions": [
    {
      "hash": "0x6ec6f4360deeae1b4b4f8cfc9712320e2ef37d08778c413a1198eba96204354c",
      "transactionType": "CREATE",
      "contractName": "PandaCollection",
      "contractAddress": "0x21df7Ed1963aEB146a6c1Dc040C014fe8F1AaeC4",
      "function": null,
      "arguments": null,
      "transaction": {
        "type": "0x02",
        "from": "0x764693dd666e8dd9275cde8f05c6b07446b1d941",
        "gas": "0x185d2a",
        "value": "0x0",
        "data": "0x601261012081815271536d696c696e6720626162792050616e646160701b6101405260809081526101608281527153697474696e6720626162792050616e646160701b6101805260a052601a6101a09081527f53697474696e6720626162792050616e646120696e20747265650000000000006101c05260c05260136101e09081527f536d696c696e67204164756c742050616e6461000000000000000000000000006102005260e052610260604052610220918252714164756c7420656174696e672070616e646160701b6102405261010091909152620000e690600990600562000179565b50348015620000f457600080fd5b506040518060400160405280601081526020016f2830b732309021b7b63632b1ba34b7b760811b8152506040518060400160405280600381526020016250444360e81b81525081600290816200014b9190620002f7565b5060036200015a8282620002f7565b50600080555050600880546001600160a01b03191633179055620003c3565b828054828255906000526020600020908101928215620001c4579160200282015b82811115620001c45782518290620001b39082620002f7565b50916020019190600101906200019a565b50620001d2929150620001d6565b5090565b80821115620001d2576000620001ed8282620001f7565b50600101620001d6565b508054620002059062000266565b6000825580601f1062000216575050565b601f01602090049060005260206000209081019062000236919062000239565b50565b5b80821115620001d257600081556001016200023a565b634e487b7160e01b600052604160045260246000fd5b600181811c908216806200027b57607f821691505b6020821081036200029c57634e487b7160e01b600052602260045260246000fd5b50919050565b601f821115620002f2576000816000526020600020601f850160051c81016020861015620002cd5750805b601f850160051c820191505b81811015620002ee57828155600101620002d9565b5050505b505050565b81516001600160401b0381111562000313576200031362000250565b6200032b8162000324845462000266565b84620002a2565b602080601f8311600181146200036357600084156200034a5750858301515b600019600386901b1c1916600185901b178555620002ee565b600085815260208120601f198616915b82811015620003945788860151825594840194600190910190840162000373565b5085821015620003b35787850151600019600388901b60f8161c191681555b5050505050600190811b01905550565b61114c80620003d36000396000f3fe6080604052600436106100f35760003560e01c806370a082311161008a578063b88d4fde11610059578063b88d4fde1461027c578063c87b56dd1461028f578063d670a97c146102af578063e985e9c5146102cf57600080fd5b806370a0823114610205578063953637311461022557806395d89b4114610247578063a22cb4651461025c57600080fd5b806318160ddd116100c657806318160ddd1461019c57806323b872dd146101bf57806342842e0e146101d25780636352211e146101e557600080fd5b806301ffc9a7146100f857806306fdde031461012d578063081812fc1461014f578063095ea7b314610187575b600080fd5b34801561010457600080fd5b50610118610113366004610d00565b610318565b60405190151581526020015b60405180910390f35b34801561013957600080fd5b5061014261036a565b6040516101249190610d6d565b34801561015b57600080fd5b5061016f61016a366004610d80565b6103fc565b6040516001600160a01b039091168152602001610124565b61019a610195366004610db5565b610440565b005b3480156101a857600080fd5b50600154600054035b604051908152602001610124565b61019a6101cd366004610ddf565b6104e0565b61019a6101e0366004610ddf565b610678565b3480156101f157600080fd5b5061016f610200366004610d80565b610698565b34801561021157600080fd5b506101b1610220366004610e1b565b6106a3565b34801561023157600080fd5b5061023a6106f2565b6040516101249190610e36565b34801561025357600080fd5b506101426107cb565b34801561026857600080fd5b5061019a610277366004610e9a565b6107da565b61019a61028a366004610eec565b610846565b34801561029b57600080fd5b506101426102aa366004610d80565b610890565b3480156102bb57600080fd5b5061019a6102ca366004610db5565b610914565b3480156102db57600080fd5b506101186102ea366004610fc8565b6001600160a01b03918216600090815260076020908152604080832093909416825291909152205460ff1690565b60006301ffc9a760e01b6001600160e01b03198316148061034957506380ac58cd60e01b6001600160e01b03198316145b806103645750635b5e139f60e01b6001600160e01b03198316145b92915050565b60606002805461037990610ffb565b80601f01602080910402602001604051908101604052809291908181526020018280546103a590610ffb565b80156103f25780601f106103c7576101008083540402835291602001916103f2565b820191906000526020600020905b8154815290600101906020018083116103d557829003601f168201915b5050505050905090565b60006104078261099f565b610424576040516333d1c03960e21b815260040160405180910390fd5b506000908152600660205260409020546001600160a01b031690565b600061044b82610698565b9050336001600160a01b038216146104845761046781336102ea565b610484576040516367d9dca160e11b815260040160405180910390fd5b60008281526006602052604080822080546001600160a01b0319166001600160a01b0387811691821790925591518593918516917f8c5be1e5ebec7d5bd14f71427d1e84f3dd0314c0f7b2291e5b200ac8c7c3b92591a4505050565b60006104eb826109c6565b9050836001600160a01b0316816001600160a01b03161461051e5760405162a1148160e81b815260040160405180910390fd5b60008281526006602052604090208054338082146001600160a01b0388169091141761056b5761054e86336102ea565b61056b57604051632ce44b5f60e11b815260040160405180910390fd5b6001600160a01b03851661059257604051633a954ecd60e21b815260040160405180910390fd5b801561059d57600082555b6001600160a01b038681166000908152600560205260408082208054600019019055918716808252919020805460010190554260a01b17600160e11b17600085815260046020526040812091909155600160e11b8416900361062f5760018401600081815260046020526040812054900361062d57600054811461062d5760008181526004602052604090208490555b505b83856001600160a01b0316876001600160a01b03167fddf252ad1be2c89b69c2b068fc378daa952ba7f163c4a11628f55a4df523b3ef60405160405180910390a4505050505050565b61069383838360405180602001604052806000815250610846565b505050565b6000610364826109c6565b60006001600160a01b0382166106cc576040516323d3ad8160e21b815260040160405180910390fd5b506001600160a01b031660009081526005602052604090205467ffffffffffffffff1690565b60606009805480602002602001604051908101604052809291908181526020016000905b828210156107c257838290600052602060002001805461073590610ffb565b80601f016020809104026020016040519081016040528092919081815260200182805461076190610ffb565b80156107ae5780601f10610783576101008083540402835291602001916107ae565b820191906000526020600020905b81548152906001019060200180831161079157829003601f168201915b505050505081526020019060010190610716565b50505050905090565b60606003805461037990610ffb565b3360008181526007602090815260408083206001600160a01b03871680855290835292819020805460ff191686151590811790915590519081529192917f17307eab39ab6107e8899845ad3d59bd9653f200f220920489ca2b5937696c31910160405180910390a35050565b6108518484846104e0565b6001600160a01b0383163b1561088a5761086d84848484610a2d565b61088a576040516368d2bf6b60e11b815260040160405180910390fd5b50505050565b606061089b8261099f565b6108b857604051630a14c4b560e41b815260040160405180910390fd5b60006108c2610b18565b905080516000036108e2576040518060200160405280600081525061090d565b806108ec84610b38565b6040516020016108fd929190611035565b6040516020818303038152906040525b9392505050565b6008546001600160a01b031633146109815760405162461bcd60e51b815260206004820152602660248201527f4f6e6c7920746865206f776e65722063616e20706572666f726d20746869732060448201526530b1ba34b7b760d11b606482015260840160405180910390fd5b61099b828260405180602001604052806000815250610b7c565b5050565b6000805482108015610364575050600090815260046020526040902054600160e01b161590565b600081600054811015610a145760008181526004602052604081205490600160e01b82169003610a12575b8060000361090d5750600019016000818152600460205260409020546109f1565b505b604051636f96cda160e11b815260040160405180910390fd5b604051630a85bd0160e11b81526000906001600160a01b0385169063150b7a0290610a62903390899088908890600401611074565b6020604051808303816000875af1925050508015610a9d575060408051601f3d908101601f19168201909252610a9a918101906110b1565b60015b610afb573d808015610acb576040519150601f19603f3d011682016040523d82523d6000602084013e610ad0565b606091505b508051600003610af3576040516368d2bf6b60e11b815260040160405180910390fd5b805181602001fd5b6001600160e01b031916630a85bd0160e11b149050949350505050565b60606040518060800160405280604881526020016110cf60489139905090565b606060a06040510180604052602081039150506000815280825b600183039250600a81066030018353600a900480610b525750819003601f19909101908152919050565b610b868383610be9565b6001600160a01b0383163b15610693576000548281035b610bb06000868380600101945086610a2d565b610bcd576040516368d2bf6b60e11b815260040160405180910390fd5b818110610b9d578160005414610be257600080fd5b5050505050565b6000805490829003610c0e5760405163b562e8dd60e01b815260040160405180910390fd5b6001600160a01b03831660008181526005602090815260408083208054680100000000000000018802019055848352600490915281206001851460e11b4260a01b178317905582840190839083907fddf252ad1be2c89b69c2b068fc378daa952ba7f163c4a11628f55a4df523b3ef8180a4600183015b818114610cbd57808360007fddf252ad1be2c89b69c2b068fc378daa952ba7f163c4a11628f55a4df523b3ef600080a4600101610c85565b5081600003610cde57604051622e076360e81b815260040160405180910390fd5b60005550505050565b6001600160e01b031981168114610cfd57600080fd5b50565b600060208284031215610d1257600080fd5b813561090d81610ce7565b60005b83811015610d38578181015183820152602001610d20565b50506000910152565b60008151808452610d59816020860160208601610d1d565b601f01601f19169290920160200192915050565b60208152600061090d6020830184610d41565b600060208284031215610d9257600080fd5b5035919050565b80356001600160a01b0381168114610db057600080fd5b919050565b60008060408385031215610dc857600080fd5b610dd183610d99565b946020939093013593505050565b600080600060608486031215610df457600080fd5b610dfd84610d99565b9250610e0b60208501610d99565b9150604084013590509250925092565b600060208284031215610e2d57600080fd5b61090d82610d99565b600060208083016020845280855180835260408601915060408160051b87010192506020870160005b82811015610e8d57603f19888603018452610e7b858351610d41565b94509285019290850190600101610e5f565b5092979650505050505050565b60008060408385031215610ead57600080fd5b610eb683610d99565b915060208301358015158114610ecb57600080fd5b809150509250929050565b634e487b7160e01b600052604160045260246000fd5b60008060008060808587031215610f0257600080fd5b610f0b85610d99565b9350610f1960208601610d99565b925060408501359150606085013567ffffffffffffffff80821115610f3d57600080fd5b818701915087601f830112610f5157600080fd5b813581811115610f6357610f63610ed6565b604051601f8201601f19908116603f01168101908382118183101715610f8b57610f8b610ed6565b816040528281528a6020848701011115610fa457600080fd5b82602086016020830137600060208483010152809550505050505092959194509250565b60008060408385031215610fdb57600080fd5b610fe483610d99565b9150610ff260208401610d99565b90509250929050565b600181811c9082168061100f57607f821691505b60208210810361102f57634e487b7160e01b600052602260045260246000fd5b50919050565b60008351611047818460208801610d1d565b83519083019061105b818360208801610d1d565b64173539b7b760d91b9101908152600501949350505050565b6001600160a01b03858116825284166020820152604081018390526080606082018190526000906110a790830184610d41565b9695505050505050565b6000602082840312156110c357600080fd5b815161090d81610ce756fe697066733a2f2f626166796265696279747264366966777a737a76616e6c6c6a36617a656f376c69666c6235713574666b727366636f643663776977717a35726b652f70616e6461a26469706673582212208a52dd24d62c7706c37a37a2d5047c8aeafa3cf2cb06f91e89f5734bb77c3c6c64736f6c63430008170033",
        "nonce": "0x15",
        "accessList": []
      },
      "additionalContracts": [],
      "isFixedGasLimit": false
    },
    {
      "hash": "0xb4e318dc1d8a8123b71cfd551742c2e465ba496c0582b8d994a34e6e20ab5ae7",
      "transactionType": "CALL",
      "contractName": "PandaCollection",
      "contractAddress": "0x21df7Ed1963aEB146a6c1Dc040C014fe8F1AaeC4",
      "function": "MintBatches(address,uint256)",
      "arguments": [
        "0x764693DD666E8dD9275CDE8F05C6B07446B1d941",
        "5"
      ],
      "transaction": {
        "type": "0x02",
        "from": "0x764693dd666e8dd9275cde8f05c6b07446b1d941",
        "to": "0x21df7ed1963aeb146a6c1dc040c014fe8f1aaec4",
        "gas": "0x23ec7",
        "value": "0x0",
        "data": "0xd670a97c000000000000000000000000764693dd666e8dd9275cde8f05c6b07446b1d9410000000000000000000000000000000000000000000000000000000000000005",
        "nonce": "0x16",
        "accessList": []
      },
      "additionalContracts": [],
      "isFixedGasLimit": false
    },
    {
      "hash": "0x56d28e4b8bb258b86455d097d175f883dbb5ab66c9d12824d88721629c9d9aa4",
      "transactionType": "CALL",
      "contractName": "PandaCollection",
      "contractAddress": "0x21df7Ed1963aEB146a6c1Dc040C014fe8F1AaeC4",
      "function": "setApprovalForAll(address,bool)",
      "arguments": [
        "0xF9bc4a80464E48369303196645e876c8C7D972de",
        "true"
      ],
      "transaction": {
        "type": "0x02",
        "from": "0x764693dd666e8dd9275cde8f05c6b07446b1d941",
        "to": "0x21df7ed1963aeb146a6c1dc040c014fe8f1aaec4",
        "gas": "0x107a0",
        "value": "0x0",
        "data": "0xa22cb465000000000000000000000000f9bc4a80464e48369303196645e876c8c7d972de0000000000000000000000000000000000000000000000000000000000000001",
        "nonce": "0x17",
        "accessList": []
      },
      "additionalContracts": [],
      "isFixedGasLimit": false
    },
    {
      "hash": "0xa657df8403def3c505938aa18b4e0d58d8bf2f4f2a0edac6b7aeeae489d15f61",
      "transactionType": "CALL",
      "contractName": "FxERC721RootTunnel",
      "contractAddress": "0xF9bc4a80464E48369303196645e876c8C7D972de",
      "function": "deposit(address,address,uint256,bytes)",
      "arguments": [
        "0x21df7Ed1963aEB146a6c1Dc040C014fe8F1AaeC4",
        "0x764693DD666E8dD9275CDE8F05C6B07446B1d941",
        "0",
        "0x3078"
      ],
      "transaction": {
        "type": "0x02",
        "from": "0x764693dd666e8dd9275cde8f05c6b07446b1d941",
        "to": "0xf9bc4a80464e48369303196645e876c8c7d972de",
        "gas": "0x3b40b",
        "value": "0x0",
        "data": "0xe9c670ad00000000000000000000000021df7ed1963aeb146a6c1dc040c014fe8f1aaec4000000000000000000000000764693dd666e8dd9275cde8f05c6b07446b1d9410000000000000000000000000000000000000000000000000000000000000000000000000000000000000000000000000000000000000000000000000000008000000000000000000000000000000000000000000000000000000000000000023078000000000000000000000000000000000000000000000000000000000000",
        "nonce": "0x18",
        "accessList": []
      },
      "additionalContracts": [],
      "isFixedGasLimit": false
    },
    {
      "hash": "0x134b0c009fda08811a5bdcc007385ebcb3faed899acbbde84e0547fbd824c379",
      "transactionType": "CALL",
      "contractName": "FxERC721RootTunnel",
      "contractAddress": "0xF9bc4a80464E48369303196645e876c8C7D972de",
      "function": "deposit(address,address,uint256,bytes)",
      "arguments": [
        "0x21df7Ed1963aEB146a6c1Dc040C014fe8F1AaeC4",
        "0x764693DD666E8dD9275CDE8F05C6B07446B1d941",
        "1",
        "0x3078"
      ],
      "transaction": {
        "type": "0x02",
        "from": "0x764693dd666e8dd9275cde8f05c6b07446b1d941",
        "to": "0xf9bc4a80464e48369303196645e876c8c7d972de",
        "gas": "0x25f38",
        "value": "0x0",
        "data": "0xe9c670ad00000000000000000000000021df7ed1963aeb146a6c1dc040c014fe8f1aaec4000000000000000000000000764693dd666e8dd9275cde8f05c6b07446b1d9410000000000000000000000000000000000000000000000000000000000000001000000000000000000000000000000000000000000000000000000000000008000000000000000000000000000000000000000000000000000000000000000023078000000000000000000000000000000000000000000000000000000000000",
        "nonce": "0x19",
        "accessList": []
      },
      "additionalContracts": [],
      "isFixedGasLimit": false
    },
    {
      "hash": "0x57295e9e529dcb0553f985b81902f0e652e6f2593a6d461513f549e079eb06f0",
      "transactionType": "CALL",
      "contractName": "FxERC721RootTunnel",
      "contractAddress": "0xF9bc4a80464E48369303196645e876c8C7D972de",
      "function": "deposit(address,address,uint256,bytes)",
      "arguments": [
        "0x21df7Ed1963aEB146a6c1Dc040C014fe8F1AaeC4",
        "0x764693DD666E8dD9275CDE8F05C6B07446B1d941",
        "2",
        "0x3078"
      ],
      "transaction": {
        "type": "0x02",
        "from": "0x764693dd666e8dd9275cde8f05c6b07446b1d941",
        "to": "0xf9bc4a80464e48369303196645e876c8c7d972de",
        "gas": "0x25f38",
        "value": "0x0",
        "data": "0xe9c670ad00000000000000000000000021df7ed1963aeb146a6c1dc040c014fe8f1aaec4000000000000000000000000764693dd666e8dd9275cde8f05c6b07446b1d9410000000000000000000000000000000000000000000000000000000000000002000000000000000000000000000000000000000000000000000000000000008000000000000000000000000000000000000000000000000000000000000000023078000000000000000000000000000000000000000000000000000000000000",
        "nonce": "0x1a",
        "accessList": []
      },
      "additionalContracts": [],
      "isFixedGasLimit": false
    },
    {
      "hash": "0x92cf2254ff910eeee1652b35772b15351a65191129145ef6ff00f1fb7db63bab",
      "transactionType": "CALL",
      "contractName": "FxERC721RootTunnel",
      "contractAddress": "0xF9bc4a80464E48369303196645e876c8C7D972de",
      "function": "deposit(address,address,uint256,bytes)",
      "arguments": [
        "0x21df7Ed1963aEB146a6c1Dc040C014fe8F1AaeC4",
        "0x764693DD666E8dD9275CDE8F05C6B07446B1d941",
        "3",
        "0x3078"
      ],
      "transaction": {
        "type": "0x02",
        "from": "0x764693dd666e8dd9275cde8f05c6b07446b1d941",
        "to": "0xf9bc4a80464e48369303196645e876c8c7d972de",
        "gas": "0x25f38",
        "value": "0x0",
        "data": "0xe9c670ad00000000000000000000000021df7ed1963aeb146a6c1dc040c014fe8f1aaec4000000000000000000000000764693dd666e8dd9275cde8f05c6b07446b1d9410000000000000000000000000000000000000000000000000000000000000003000000000000000000000000000000000000000000000000000000000000008000000000000000000000000000000000000000000000000000000000000000023078000000000000000000000000000000000000000000000000000000000000",
        "nonce": "0x1b",
        "accessList": []
      },
      "additionalContracts": [],
      "isFixedGasLimit": false
    },
    {
      "hash": "0x78ceb6c9caecc8db01fa9348405fabba816d85d343570297f14d0c94990de250",
      "transactionType": "CALL",
      "contractName": "FxERC721RootTunnel",
      "contractAddress": "0xF9bc4a80464E48369303196645e876c8C7D972de",
      "function": "deposit(address,address,uint256,bytes)",
      "arguments": [
        "0x21df7Ed1963aEB146a6c1Dc040C014fe8F1AaeC4",
        "0x764693DD666E8dD9275CDE8F05C6B07446B1d941",
        "4",
        "0x3078"
      ],
      "transaction": {
        "type": "0x02",
        "from": "0x764693dd666e8dd9275cde8f05c6b07446b1d941",
        "to": "0xf9bc4a80464e48369303196645e876c8c7d972de",
        "gas": "0x1f2e9",
        "value": "0x0",
        "data": "0xe9c670ad00000000000000000000000021df7ed1963aeb146a6c1dc040c014fe8f1aaec4000000000000000000000000764693dd666e8dd9275cde8f05c6b07446b1d9410000000000000000000000000000000000000000000000000000000000000004000000000000000000000000000000000000000000000000000000000000008000000000000000000000000000000000000000000000000000000000000000023078000000000000000000000000000000000000000000000000000000000000",
        "nonce": "0x1c",
        "accessList": []
      },
      "additionalContracts": [],
      "isFixedGasLimit": false
    }
  ],
  "receipts": [],
  "libraries": [],
  "pending": [
    "0x6ec6f4360deeae1b4b4f8cfc9712320e2ef37d08778c413a1198eba96204354c",
    "0xb4e318dc1d8a8123b71cfd551742c2e465ba496c0582b8d994a34e6e20ab5ae7",
    "0x56d28e4b8bb258b86455d097d175f883dbb5ab66c9d12824d88721629c9d9aa4",
    "0xa657df8403def3c505938aa18b4e0d58d8bf2f4f2a0edac6b7aeeae489d15f61",
    "0x134b0c009fda08811a5bdcc007385ebcb3faed899acbbde84e0547fbd824c379",
    "0x57295e9e529dcb0553f985b81902f0e652e6f2593a6d461513f549e079eb06f0",
    "0x92cf2254ff910eeee1652b35772b15351a65191129145ef6ff00f1fb7db63bab",
    "0x78ceb6c9caecc8db01fa9348405fabba816d85d343570297f14d0c94990de250"
  ],
  "returns": {},
  "timestamp": 1703265984,
  "chain": 5,
  "multi": false,
  "commit": "182f737"
}